S013000054696D65725F5461736B322E73726563EC
S113000045C0000053C0000051C000004FC00000B4
S11300104DC000004BC0000049C0000047C00000B4
S113002045C0000043C0000041C000003FC00000C4
S11300303DC000003BC0000039C000005BC00000B0
S113004035C0000033C0000031C000002FC00000E4
S11300502DC000002BC0000029C0000027C00000F4
S113006025C0000023C0000021C000001FC0000004
S11300701DC000001BC0000019C0000017C0000014
S113008015C0000013C0000011C0000011241FBEE1
S1130090CFEFD0E1DEBFCDBF21E0A0E0B1E001C0F1
S11300A01D92A230B207E1F702D053C0A9CF7894D1
S11300B0E1E6F0E0808182608083E2E6F0E0808126
S11300C0826080838AB38FEF8ABB8BB38BBBBC9A6D
S11300D0C49A83B7826083BF83B7886083BF83B7C2
S11300E0806183BF83E681BF87B7826087BF8FEF5C
S11300F08BBBFECF1F920F920FB60F9211242F933A
S11301008F939F93809100019091010101969093A8
S113011001018093000180910001909101018838D0
S1130120934179F48AEA8BBB109201011092000189
S11301308FEF91EE24E0815090402040E1F700C021
S113014000009F918F912F910F900FBE0F901F90E1
S10901501895F894FFCF9E
S9030000FC
