S0230000636F6E74726F6C20696E74656E63697479207573696E67204144432E73726563DB
S113000045C0000060C000005EC000005CC000008D
S11300105AC0000058C0000056C0000054C0000080
S113002052C0000050C000004EC000004CC0000090
S11300304AC0000048C0000046C0000044C00000A0
S113004042C0000040C000003EC000003CC00000B0
S11300503AC0000038C0000036C0000034C00000C0
S113006032C0000030C000002EC000002CC00000D0
S11300702AC0000028C0000026C0000024C00000E0
S113008022C0000020C000001EC0000011241FBEBA
S1130090CFEFD0E1DEBFCDBF11E0A0E0B1E0E2EDF3
S11300A0F4E000E00BBF02C007900D92AA31B10743
S11300B0D9F721E0AAE1B1E001C01D92AA31B2074B
S11300C0E1F74DD004C29CCF8FEF8ABB8BBB84BBBE
S11300D015BAE1E6F0E0808184608083E2E6F0E036
S11300E080818B7F80830895CF93DF93CDB7DEB774
S11300F02B970FB6F894DEBF0FBECDBF9BE0E0E0B8
S1130100F1E0DE01119601900D929A95E1F790E0ED
S1130110019721E030E0A90102C0440F551F8A95E0
S1130120E2F7CA0180958BBB6E3219F48B8585BBCF
S113013005C0FE01E60FF11D818185BB8FEC97E0C0
S11301400197F1F700C000008FEF8BBB2B960FB621
S1130150F894DEBF0FBECDBFDF91CF9108957894A0
S11301603F9A3D9A379A369A359ABC9AC49A83B77D
S1130170826083BF83B7886083BF83B7806483BF93
S113018083B7806283BF1C9A9FDF53D14BE051E059
S113019061E081E093D1C0E0D0E00F2EFDECDF2ED2
S11301A0F02D0F2EF9E2BF2EF02D00E011E0E12C2E
S11301B0F12C68C0C1BF61B76D9D812D1124869556
S11301C086958695880F982F990F990F890F681B2C
S11301D083E08ADF61B76D9D612D11246695669574
S11301E066956D9D812D1124869586958695880F3B
S11301F0982F990F990F890F681B82E075DF61B7FB
S11302006B9D612D112462956F7081E06DDF41B7A4
S1130210A1B6C1B64B9D412D112442954F70405D4E
S113022062E082E030D1AD9C812D112486958695C3
S113023086958D9D912D1124969596959695990F59
S1130240292F220F220F920F891B482F405D63E054
S113025082E019D1CD9C812D1124869586958695B1
S1130260880F982F990F990F890F4C2D481B405DCB
S113027064E082E008D18FE19EE40197F1F700C0C9
S113028000002196CF3FD10509F00CF493CFE8018B
S1130290C1BF61B76D9D812D112486958695869584
S11302A0880F982F990F990F890F681B83E01CDF23
S11302B061B76D9D612D11246695669566956D9D5A
S11302C0812D1124869586958695880F982F990FF0
S11302D0990F890F681B82E007DF61B76B9D612D61
S11302E0112462956F7081E0FFDE41B7A1B6C1B6FB
S11302F04B9D412D112442954F70405D62E082E098
S1130300C2D0AD9C412D11244695469546954D9DF0
S1130310812D1124869586958695880F982F990F9F
S1130320990F890F481B405D63E082E0ACD0CD9CFF
S1130330812D1124869586958695880F982F990F7F
S1130340990F890F4C2D481B405D64E082E09BD0DF
S11303508FE19EE40197F1F700C00000219709F0B6
S113036097CFE7018FCFC59AC698882314F4AF9A24
S113037001C0AF9886FF02C0AE9A01C0AE9885FF57
S113038002C0AD9A01C0AD9884FF02C0AC9A01C00E
S1130390AC98C79AC79883FF02C0AF9A01C0AF98C0
S11303A082FF02C0AE9A01C0AE9881FF02C0AD9A2E
S11303B001C0AD9880FF02C0AC9A01C0AC98C79A46
S11303C0C7988AE68A95F1F700C00895C598C6983B
S11303D0882314F4AF9A01C0AF9886FF02C0AE9A86
S11303E001C0AE9885FF02C0AD9A01C0AD9884FFEC
S11303F002C0AC9A01C0AC98C79AC79883FF02C0E8
S1130400AF9A01C0AF9882FF02C0AE9A01C0AE9805
S113041081FF02C0AD9A01C0AD9880FF02C0AC9AC2
S113042001C0AC98C79AC7988AE68A95F1F700C0CC
S1130430089584B3806F84BB85B38F7085BB87B305
S1130440806E87BB88B38F7188BB8FE39CE901976B
S1130450F1F700C0000088E2B9DF8CE0B7DF86E086
S1130460B5DF81E0B3DF8FE097E20197F1F700C0D9
S113047000000895613011F48058A8CF623011F45F
S11304808054A4CF0895CF93C42FF4DF8C2F6BDF57
S1130490CF9108951F93CF93DF93EC018881882334
S11304A049F010E01F5F5FDFFE01E10FF11D808165
S11304B08111F8CFDF91CF911F910895CF93DF93EE
S11304C0EA01D8DFCE01E6DFDF91CF910895F894F9
S10504D0FFCF58
S11304D23F065B4F666D7D077F6F80496E74656E64
S10D04E2736974792069733A00000D
S9030000FC
