S00D00004C43445F312E73726563B4
S113000045C000004BC0000049C0000047C00000CC
S113001045C0000043C0000041C000003FC00000D4
S11300203DC000003BC0000039C0000037C00000E4
S113003035C0000033C0000031C000002FC00000F4
S11300402DC000002BC0000029C0000027C0000004
S113005025C0000023C0000021C000001FC0000014
S11300601DC000001BC0000019C0000017C0000024
S113007015C0000013C0000011C000000FC0000034
S11300800DC000000BC0000009C0000011241FBEF9
S1130090CFEFD0E1DEBFCDBF99D0E7C0B1CFC59AD5
S11300A0C698882314F4AF9A01C0AF9886FF02C0A3
S11300B0AE9A01C0AE9885FF02C0AD9A01C0AD985A
S11300C084FF02C0AC9A01C0AC98C79AC79883FF5A
S11300D002C0AF9A01C0AF9882FF02C0AE9A01C0BD
S11300E0AE9881FF02C0AD9A01C0AD9880FF02C0F6
S11300F0AC9A01C0AC98C79AC7988AE68A95F1F77A
S113010000C00895C598C698882314F4AF9A01C016
S1130110AF9886FF02C0AE9A01C0AE9885FF02C0B8
S1130120AD9A01C0AD9884FF02C0AC9A01C0AC98EE
S1130130C79AC79883FF02C0AF9A01C0AF9882FFE5
S113014002C0AE9A01C0AE9881FF02C0AD9A01C050
S1130150AD9880FF02C0AC9A01C0AC98C79AC7980A
S11301608AE68A95F1F700C0089584B3806F84BB52
S113017085B38F7085BB87B3806E87BB88B38F715F
S113018088BB8FE39CE90197F1F700C0000088E287
S1130190B9DF8CE0B7DF86E0B5DF81E0B3DF8FE065
S11301A097E20197F1F700C000000895613011F45F
S11301B08058A8CF623011F48054A4CF0895CF930F
S11301C0C42FF4DF8C2F6BDFCF9108951C9A3F9AD4
S11301D03D9A379A369A359ABC9AC49A83B7826004
S11301E083BF83B7886083BF83B7806483BF83B7CB
S11301F0806283BF85B181BFB8DF09E2CDEC85B1F0
S113020081BF45B115B1D5B1409F412D112442950F
S11302104F70405D61E081E0D2DF1C9F412D1124CD
S11302204695469546954C9F812D11248695869535
S11302308695880F982F990F990F890F481B405D59
S113024061E082E0BCDFDC9F812D112486958695D8
S11302508695880F982F990F990F890FD81B4D2FCA
S1110260405D61E083E0ABDFCACFF894FFCFCE
S9030000FC
